{
  "_format": "hh-sol-artifact-1",
  "contractName": "Tasks",
  "sourceName": "contracts/Tasks.sol",
  "abi": [
    {
      "inputs": [
        {
          "internalType": "string",
          "name": "_task",
          "type": "string"
        }
      ],
      "name": "addTask",
      "outputs": [],
      "stateMutability": "nonpayable",
      "type": "function"
    },
    {
      "inputs": [
        {
          "internalType": "uint256",
          "name": "_taskIndex",
          "type": "uint256"
        }
      ],
      "name": "deleteTask",
      "outputs": [],
      "stateMutability": "nonpayable",
      "type": "function"
    },
    {
      "inputs": [],
      "name": "getTaskCount",
      "outputs": [
        {
          "internalType": "uint256",
          "name": "",
          "type": "uint256"
        }
      ],
      "stateMutability": "view",
      "type": "function"
    },
    {
      "inputs": [],
      "name": "getTasks",
      "outputs": [
        {
          "internalType": "string[]",
          "name": "",
          "type": "string[]"
        }
      ],
      "stateMutability": "view",
      "type": "function"
    },
    {
      "inputs": [],
      "name": "getTasksLength",
      "outputs": [
        {
          "internalType": "uint256",
          "name": "",
          "type": "uint256"
        }
      ],
      "stateMutability": "view",
      "type": "function"
    },
    {
      "inputs": [
        {
          "internalType": "string",
          "name": "_task",
          "type": "string"
        }
      ],
      "name": "setTasks",
      "outputs": [],
      "stateMutability": "nonpayable",
      "type": "function"
    },
    {
      "inputs": [
        {
          "internalType": "uint256",
          "name": "",
          "type": "uint256"
        }
      ],
      "name": "tasks",
      "outputs": [
        {
          "internalType": "string",
          "name": "",
          "type": "string"
        }
      ],
      "stateMutability": "view",
      "type": "function"
    },
    {
      "inputs": [
        {
          "internalType": "uint256",
          "name": "_taskIndex",
          "type": "uint256"
        },
        {
          "internalType": "bool",
          "name": "_status",
          "type": "bool"
        }
      ],
      "name": "updateStatus",
      "outputs": [],
      "stateMutability": "nonpayable",
      "type": "function"
    }
  ],
  "bytecode": "0x608060405234801561001057600080fd5b50610d05806100206000396000f3fe608060405234801561001057600080fd5b50600436106100885760003560e01c80638d9776721161005b5780638d977672146100ff5780638fd86e2f1461012f578063c1419a041461014b578063c17a340e1461016957610088565b806304a87e381461008d578063387008c2146100ab578063560f3192146100c757806367238562146100e3575b600080fd5b610095610187565b6040516100a2919061086d565b60405180910390f35b6100c560048036038101906100c09190610911565b610260565b005b6100e160048036038101906100dc9190610951565b6102de565b005b6100fd60048036038101906100f891906109e3565b61038f565b005b61011960048036038101906101149190610951565b6104e8565b6040516101269190610a7a565b60405180910390f35b61014960048036038101906101449190610bcc565b610594565b005b6101536105d3565b6040516101609190610c24565b60405180910390f35b6101716105e5565b60405161017e9190610c24565b60405180910390f35b60606000805480602002602001604051908101604052809291908181526020016000905b828210156102575783829060005260206000200180546101ca90610c6e565b80601f01602080910402602001604051908101604052809291908181526020018280546101f690610c6e565b80156102435780601f1061021857610100808354040283529160200191610243565b820191906000526020600020905b81548152906001019060200180831161022657829003601f168201915b5050505050815260200190600101906101ab565b50505050905090565b80600160003373ffffffffffffffffffffffffffffffffffffffff1673ffffffffffffffffffffffffffffffffffffffff16815260200190815260200160002083815481106102b2576102b1610ca0565b5b906000526020600020906002020160010160016101000a81548160ff0219169083151502179055505050565b600160003373ffffffffffffffffffffffffffffffffffffffff1673ffffffffffffffffffffffffffffffffffffffff168152602001908152602001600020818154811061032f5761032e610ca0565b5b90600052602060002090600202016000808201600061034e919061062f565b6001820160006101000a81549060ff02191690556001820160016101000a81549060ff02191690556001820160026101000a81549060ff0219169055505050565b600160003373ffffffffffffffffffffffffffffffffffffffff1673ffffffffffffffffffffffffffffffffffffffff168152602001908152602001600020604051806080016040528084848080601f016020809104026020016040519081016040528093929190818152602001838380828437600081840152601f19601f820116905080830192505050505050508152602001600015158152602001600015158152602001600015158152509080600181540180825580915050600190039060005260206000209060020201600090919091909150600082015181600001908051906020019061048192919061066f565b5060208201518160010160006101000a81548160ff02191690831515021790555060408201518160010160016101000a81548160ff02191690831515021790555060608201518160010160026101000a81548160ff02191690831515021790555050505050565b600081815481106104f857600080fd5b90600052602060002001600091509050805461051390610c6e565b80601f016020809104026020016040519081016040528092919081815260200182805461053f90610c6e565b801561058c5780601f106105615761010080835404028352916020019161058c565b820191906000526020600020905b81548152906001019060200180831161056f57829003601f168201915b505050505081565b6000819080600181540180825580915050600190039060005260206000200160009091909190915090805190602001906105cf92919061066f565b5050565b60008060008054905090508091505090565b6000600160003373ffffffffffffffffffffffffffffffffffffffff1673ffffffffffffffffffffffffffffffffffffffff16815260200190815260200160002080549050905090565b50805461063b90610c6e565b6000825580601f1061064d575061066c565b601f01602090049060005260206000209081019061066b91906106f5565b5b50565b82805461067b90610c6e565b90600052602060002090601f01602090048101928261069d57600085556106e4565b82601f106106b657805160ff19168380011785556106e4565b828001600101855582156106e4579182015b828111156106e35782518255916020019190600101906106c8565b5b5090506106f191906106f5565b5090565b5b8082111561070e5760008160009055506001016106f6565b5090565b600081519050919050565b600082825260208201905092915050565b6000819050602082019050919050565b600081519050919050565b600082825260208201905092915050565b60005b8381101561077857808201518184015260208101905061075d565b83811115610787576000848401525b50505050565b6000601f19601f8301169050919050565b60006107a98261073e565b6107b38185610749565b93506107c381856020860161075a565b6107cc8161078d565b840191505092915050565b60006107e3838361079e565b905092915050565b6000602082019050919050565b600061080382610712565b61080d818561071d565b93508360208202850161081f8561072e565b8060005b8581101561085b578484038952815161083c85826107d7565b9450610847836107eb565b925060208a01995050600181019050610823565b50829750879550505050505092915050565b6000602082019050818103600083015261088781846107f8565b905092915050565b6000604051905090565b600080fd5b600080fd5b6000819050919050565b6108b6816108a3565b81146108c157600080fd5b50565b6000813590506108d3816108ad565b92915050565b60008115159050919050565b6108ee816108d9565b81146108f957600080fd5b50565b60008135905061090b816108e5565b92915050565b6000806040838503121561092857610927610899565b5b6000610936858286016108c4565b9250506020610947858286016108fc565b9150509250929050565b60006020828403121561096757610966610899565b5b6000610975848285016108c4565b91505092915050565b600080fd5b600080fd5b600080fd5b60008083601f8401126109a3576109a261097e565b5b8235905067ffffffffffffffff8111156109c0576109bf610983565b5b6020830191508360018202830111156109dc576109db610988565b5b9250929050565b600080602083850312156109fa576109f9610899565b5b600083013567ffffffffffffffff811115610a1857610a1761089e565b5b610a248582860161098d565b92509250509250929050565b600082825260208201905092915050565b6000610a4c8261073e565b610a568185610a30565b9350610a6681856020860161075a565b610a6f8161078d565b840191505092915050565b60006020820190508181036000830152610a948184610a41565b905092915050565b600080fd5b7f4e487b7100000000000000000000000000000000000000000000000000000000600052604160045260246000fd5b610ad98261078d565b810181811067ffffffffffffffff82111715610af857610af7610aa1565b5b80604052505050565b6000610b0b61088f565b9050610b178282610ad0565b919050565b600067ffffffffffffffff821115610b3757610b36610aa1565b5b610b408261078d565b9050602081019050919050565b82818337600083830152505050565b6000610b6f610b6a84610b1c565b610b01565b905082815260208101848484011115610b8b57610b8a610a9c565b5b610b96848285610b4d565b509392505050565b600082601f830112610bb357610bb261097e565b5b8135610bc3848260208601610b5c565b91505092915050565b600060208284031215610be257610be1610899565b5b600082013567ffffffffffffffff811115610c0057610bff61089e565b5b610c0c84828501610b9e565b91505092915050565b610c1e816108a3565b82525050565b6000602082019050610c396000830184610c15565b92915050565b7f4e487b7100000000000000000000000000000000000000000000000000000000600052602260045260246000fd5b60006002820490506001821680610c8657607f821691505b60208210811415610c9a57610c99610c3f565b5b50919050565b7f4e487b7100000000000000000000000000000000000000000000000000000000600052603260045260246000fdfea2646970667358221220eb36413df7560b613eecc768ca785a5be33d2fe1fb833b6af0f25ffa7ea4655c64736f6c63430008090033",
  "linkReferences": {},
  "deployedLinkReferences": {}
}