{
  "_format": "hh-sol-artifact-1",
  "contractName": "Tasks",
  "sourceName": "contracts/Tasks.sol",
  "abi": [
    {
      "inputs": [
        {
          "internalType": "string",
          "name": "_task",
          "type": "string"
        }
      ],
      "name": "addTask",
      "outputs": [],
      "stateMutability": "nonpayable",
      "type": "function"
    },
    {
      "inputs": [
        {
          "internalType": "uint256",
          "name": "_taskIndex",
          "type": "uint256"
        }
      ],
      "name": "deleteTask",
      "outputs": [],
      "stateMutability": "nonpayable",
      "type": "function"
    },
    {
      "inputs": [],
      "name": "getTaskCount",
      "outputs": [
        {
          "internalType": "uint256",
          "name": "",
          "type": "uint256"
        }
      ],
      "stateMutability": "view",
      "type": "function"
    },
    {
      "inputs": [
        {
          "internalType": "uint256",
          "name": "_taskIndex",
          "type": "uint256"
        },
        {
          "internalType": "bool",
          "name": "_status",
          "type": "bool"
        }
      ],
      "name": "updateStatus",
      "outputs": [],
      "stateMutability": "nonpayable",
      "type": "function"
    }
  ],
  "bytecode": "0x608060405234801561001057600080fd5b50610681806100206000396000f3fe608060405234801561001057600080fd5b506004361061004c5760003560e01c8063387008c214610051578063560f31921461006d5780636723856214610089578063c17a340e146100a5575b600080fd5b61006b60048036038101906100669190610472565b6100c3565b005b610087600480360381019061008291906104b2565b610140565b005b6100a3600480360381019061009e9190610544565b6101c8565b005b6100ad6102ce565b6040516100ba91906105a0565b60405180910390f35b806000803373ffffffffffffffffffffffffffffffffffffffff1673ffffffffffffffffffffffffffffffffffffffff1681526020019081526020016000208381548110610114576101136105bb565b5b906000526020600020906002020160010160006101000a81548160ff0219169083151502179055505050565b6000803373ffffffffffffffffffffffffffffffffffffffff1673ffffffffffffffffffffffffffffffffffffffff16815260200190815260200160002081815481106101905761018f6105bb565b5b9060005260206000209060020201600080820160006101af9190610317565b6001820160006101000a81549060ff0219169055505050565b6000803373ffffffffffffffffffffffffffffffffffffffff1673ffffffffffffffffffffffffffffffffffffffff168152602001908152602001600020604051806040016040528084848080601f016020809104026020016040519081016040528093929190818152602001838380828437600081840152601f19601f82011690508083019250505050505050815260200160001515815250908060018154018082558091505060019003906000526020600020906002020160009091909190915060008201518160000190805190602001906102a7929190610357565b5060208201518160010160006101000a81548160ff02191690831515021790555050505050565b60008060003373ffffffffffffffffffffffffffffffffffffffff1673ffffffffffffffffffffffffffffffffffffffff16815260200190815260200160002080549050905090565b50805461032390610619565b6000825580601f106103355750610354565b601f01602090049060005260206000209081019061035391906103dd565b5b50565b82805461036390610619565b90600052602060002090601f01602090048101928261038557600085556103cc565b82601f1061039e57805160ff19168380011785556103cc565b828001600101855582156103cc579182015b828111156103cb5782518255916020019190600101906103b0565b5b5090506103d991906103dd565b5090565b5b808211156103f65760008160009055506001016103de565b5090565b600080fd5b600080fd5b6000819050919050565b61041781610404565b811461042257600080fd5b50565b6000813590506104348161040e565b92915050565b60008115159050919050565b61044f8161043a565b811461045a57600080fd5b50565b60008135905061046c81610446565b92915050565b60008060408385031215610489576104886103fa565b5b600061049785828601610425565b92505060206104a88582860161045d565b9150509250929050565b6000602082840312156104c8576104c76103fa565b5b60006104d684828501610425565b91505092915050565b600080fd5b600080fd5b600080fd5b60008083601f840112610504576105036104df565b5b8235905067ffffffffffffffff811115610521576105206104e4565b5b60208301915083600182028301111561053d5761053c6104e9565b5b9250929050565b6000806020838503121561055b5761055a6103fa565b5b600083013567ffffffffffffffff811115610579576105786103ff565b5b610585858286016104ee565b92509250509250929050565b61059a81610404565b82525050565b60006020820190506105b56000830184610591565b92915050565b7f4e487b7100000000000000000000000000000000000000000000000000000000600052603260045260246000fd5b7f4e487b7100000000000000000000000000000000000000000000000000000000600052602260045260246000fd5b6000600282049050600182168061063157607f821691505b60208210811415610645576106446105ea565b5b5091905056fea2646970667358221220929ae90640022c57a53168eb1b4aecdf383a71e73f892a85a86d90138eed817d64736f6c63430008090033",
  "linkReferences": {},
  "deployedLinkReferences": {}
}