{
  "_format": "hh-sol-artifact-1",
  "contractName": "Tasks",
  "sourceName": "contracts/Tasks.sol",
  "abi": [
    {
      "inputs": [
        {
          "internalType": "string",
          "name": "_task",
          "type": "string"
        }
      ],
      "name": "addTask",
      "outputs": [],
      "stateMutability": "nonpayable",
      "type": "function"
    },
    {
      "inputs": [
        {
          "internalType": "uint256",
          "name": "_taskIndex",
          "type": "uint256"
        }
      ],
      "name": "deleteTask",
      "outputs": [],
      "stateMutability": "nonpayable",
      "type": "function"
    },
    {
      "inputs": [],
      "name": "getTaskCount",
      "outputs": [
        {
          "internalType": "uint256",
          "name": "",
          "type": "uint256"
        }
      ],
      "stateMutability": "view",
      "type": "function"
    },
    {
      "inputs": [
        {
          "internalType": "uint256",
          "name": "_taskIndex",
          "type": "uint256"
        },
        {
          "internalType": "bool",
          "name": "_status",
          "type": "bool"
        }
      ],
      "name": "updateStatus",
      "outputs": [],
      "stateMutability": "nonpayable",
      "type": "function"
    }
  ],
  "bytecode": "0x608060405234801561001057600080fd5b506106be806100206000396000f3fe608060405234801561001057600080fd5b506004361061004c5760003560e01c8063387008c214610051578063560f31921461006d5780636723856214610089578063c17a340e146100a5575b600080fd5b61006b600480360381019061006691906104af565b6100c3565b005b610087600480360381019061008291906104ef565b610140565b005b6100a3600480360381019061009e9190610581565b6101dc565b005b6100ad61030b565b6040516100ba91906105dd565b60405180910390f35b806000803373ffffffffffffffffffffffffffffffffffffffff1673ffffffffffffffffffffffffffffffffffffffff1681526020019081526020016000208381548110610114576101136105f8565b5b906000526020600020906002020160010160016101000a81548160ff0219169083151502179055505050565b6000803373ffffffffffffffffffffffffffffffffffffffff1673ffffffffffffffffffffffffffffffffffffffff16815260200190815260200160002081815481106101905761018f6105f8565b5b9060005260206000209060020201600080820160006101af9190610354565b6001820160006101000a81549060ff02191690556001820160016101000a81549060ff0219169055505050565b6000803373ffffffffffffffffffffffffffffffffffffffff1673ffffffffffffffffffffffffffffffffffffffff168152602001908152602001600020604051806060016040528084848080601f016020809104026020016040519081016040528093929190818152602001838380828437600081840152601f19601f82011690508083019250505050505050815260200160001515815260200160001515815250908060018154018082558091505060019003906000526020600020906002020160009091909190915060008201518160000190805190602001906102c4929190610394565b5060208201518160010160006101000a81548160ff02191690831515021790555060408201518160010160016101000a81548160ff02191690831515021790555050505050565b60008060003373ffffffffffffffffffffffffffffffffffffffff1673ffffffffffffffffffffffffffffffffffffffff16815260200190815260200160002080549050905090565b50805461036090610656565b6000825580601f106103725750610391565b601f016020900490600052602060002090810190610390919061041a565b5b50565b8280546103a090610656565b90600052602060002090601f0160209004810192826103c25760008555610409565b82601f106103db57805160ff1916838001178555610409565b82800160010185558215610409579182015b828111156104085782518255916020019190600101906103ed565b5b509050610416919061041a565b5090565b5b8082111561043357600081600090555060010161041b565b5090565b600080fd5b600080fd5b6000819050919050565b61045481610441565b811461045f57600080fd5b50565b6000813590506104718161044b565b92915050565b60008115159050919050565b61048c81610477565b811461049757600080fd5b50565b6000813590506104a981610483565b92915050565b600080604083850312156104c6576104c5610437565b5b60006104d485828601610462565b92505060206104e58582860161049a565b9150509250929050565b60006020828403121561050557610504610437565b5b600061051384828501610462565b91505092915050565b600080fd5b600080fd5b600080fd5b60008083601f8401126105415761054061051c565b5b8235905067ffffffffffffffff81111561055e5761055d610521565b5b60208301915083600182028301111561057a57610579610526565b5b9250929050565b6000806020838503121561059857610597610437565b5b600083013567ffffffffffffffff8111156105b6576105b561043c565b5b6105c28582860161052b565b92509250509250929050565b6105d781610441565b82525050565b60006020820190506105f260008301846105ce565b92915050565b7f4e487b7100000000000000000000000000000000000000000000000000000000600052603260045260246000fd5b7f4e487b7100000000000000000000000000000000000000000000000000000000600052602260045260246000fd5b6000600282049050600182168061066e57607f821691505b6020821081141561068257610681610627565b5b5091905056fea2646970667358221220c55ab67f8282508b54aa55089267e9a1ddddbf19bae57143169bf3c8b1b1f90f64736f6c63430008090033",
  "linkReferences": {},
  "deployedLinkReferences": {}
}