{
  "_format": "hh-sol-artifact-1",
  "contractName": "Tasks",
  "sourceName": "contracts/Tasks.sol",
  "abi": [
    {
      "inputs": [
        {
          "internalType": "string",
          "name": "_task",
          "type": "string"
        }
      ],
      "name": "addTask",
      "outputs": [],
      "stateMutability": "nonpayable",
      "type": "function"
    },
    {
      "inputs": [
        {
          "internalType": "uint256",
          "name": "taskId",
          "type": "uint256"
        }
      ],
      "name": "deleteTask",
      "outputs": [],
      "stateMutability": "nonpayable",
      "type": "function"
    },
    {
      "inputs": [],
      "name": "getTaskCount",
      "outputs": [
        {
          "internalType": "uint256",
          "name": "",
          "type": "uint256"
        }
      ],
      "stateMutability": "view",
      "type": "function"
    },
    {
      "inputs": [],
      "name": "getTasks",
      "outputs": [
        {
          "components": [
            {
              "internalType": "uint256",
              "name": "id",
              "type": "uint256"
            },
            {
              "internalType": "string",
              "name": "task",
              "type": "string"
            },
            {
              "internalType": "bool",
              "name": "isDeleted",
              "type": "bool"
            },
            {
              "internalType": "bool",
              "name": "isCompleted",
              "type": "bool"
            },
            {
              "internalType": "bool",
              "name": "isImportant",
              "type": "bool"
            }
          ],
          "internalType": "struct Tasks.Task[]",
          "name": "",
          "type": "tuple[]"
        }
      ],
      "stateMutability": "view",
      "type": "function"
    },
    {
      "inputs": [
        {
          "internalType": "uint256",
          "name": "_taskIndex",
          "type": "uint256"
        }
      ],
      "name": "markAsComplete",
      "outputs": [],
      "stateMutability": "nonpayable",
      "type": "function"
    },
    {
      "inputs": [
        {
          "internalType": "uint256",
          "name": "_taskIndex",
          "type": "uint256"
        }
      ],
      "name": "toggleImportance",
      "outputs": [],
      "stateMutability": "nonpayable",
      "type": "function"
    },
    {
      "inputs": [
        {
          "internalType": "uint256",
          "name": "_taskIndex",
          "type": "uint256"
        },
        {
          "internalType": "string",
          "name": "_task",
          "type": "string"
        }
      ],
      "name": "updateTask",
      "outputs": [],
      "stateMutability": "nonpayable",
      "type": "function"
    }
  ],
  "bytecode": "0x6080604052600160005534801561001557600080fd5b5061123f806100256000396000f3fe608060405234801561001057600080fd5b506004361061007d5760003560e01c806366a1963f1161005b57806366a1963f146100d857806367238562146100f457806386533f6c14610110578063c17a340e1461012c5761007d565b806304a87e38146100825780632ac108c9146100a0578063560f3192146100bc575b600080fd5b61008a61014a565b6040516100979190610db5565b60405180910390f35b6100ba60048036038101906100b59190610e17565b610446565b005b6100d660048036038101906100d19190610e17565b610515565b005b6100f260048036038101906100ed9190610e17565b6106be565b005b61010e60048036038101906101099190610f79565b61078d565b005b61012a60048036038101906101259190610fc2565b610922565b005b61013461098e565b604051610141919061102d565b60405180910390f35b606060003390506000600260008373ffffffffffffffffffffffffffffffffffffffff1673ffffffffffffffffffffffffffffffffffffffff1681526020019081526020016000208054905067ffffffffffffffff8111156101af576101ae610e4e565b5b6040519080825280602002602001820160405280156101e857816020015b6101d5610ad8565b8152602001906001900390816101cd5790505b5090506000600260008473ffffffffffffffffffffffffffffffffffffffff1673ffffffffffffffffffffffffffffffffffffffff16815260200190815260200160002080548060200260200160405190810160405280929190818152602001828054801561027657602002820191906000526020600020905b815481526020019060010190808311610262575b505050505090506000805b825181101561043b576000600160008773ffffffffffffffffffffffffffffffffffffffff1673ffffffffffffffffffffffffffffffffffffffff16815260200190815260200160002060008584815181106102e0576102df611048565b5b602002602001015181526020019081526020016000206040518060a00160405290816000820154815260200160018201805461031b906110a6565b80601f0160208091040260200160405190810160405280929190818152602001828054610347906110a6565b80156103945780601f1061036957610100808354040283529160200191610394565b820191906000526020600020905b81548152906001019060200180831161037757829003601f168201915b505050505081526020016002820160009054906101000a900460ff161515151581526020016002820160019054906101000a900460ff161515151581526020016002820160029054906101000a900460ff16151515158152505090508060400151610427578085848151811061040d5761040c611048565b5b6020026020010181905250828061042390611107565b9350505b50808061043390611107565b915050610281565b508294505050505090565b600160003373ffffffffffffffffffffffffffffffffffffffff1673ffffffffffffffffffffffffffffffffffffffff168152602001908152602001600020600082815260200190815260200160002060020160029054906101000a900460ff1615600160003373ffffffffffffffffffffffffffffffffffffffff1673ffffffffffffffffffffffffffffffffffffffff168152602001908152602001600020600083815260200190815260200160002060020160026101000a81548160ff02191690831515021790555050565b600033905060018060008373ffffffffffffffffffffffffffffffffffffffff1673ffffffffffffffffffffffffffffffffffffffff168152602001908152602001600020600084815260200190815260200160002060020160006101000a81548160ff0219169083151502179055506000600260008373ffffffffffffffffffffffffffffffffffffffff1673ffffffffffffffffffffffffffffffffffffffff168152602001908152602001600020905060005b81805490508110156106b857838282815481106105eb576105ea611048565b5b906000526020600020015414156106a55760008190505b600183805490506106139190611150565b81101561067857826001826106289190611184565b8154811061063957610638611048565b5b906000526020600020015483828154811061065757610656611048565b5b9060005260206000200181905550808061067090611107565b915050610602565b508180548061068a576106896111da565b5b600190038181906000526020600020016000905590556106b8565b80806106b090611107565b9150506105cb565b50505050565b600160003373ffffffffffffffffffffffffffffffffffffffff1673ffffffffffffffffffffffffffffffffffffffff168152602001908152602001600020600082815260200190815260200160002060020160019054906101000a900460ff1615600160003373ffffffffffffffffffffffffffffffffffffffff1673ffffffffffffffffffffffffffffffffffffffff168152602001908152602001600020600083815260200190815260200160002060020160016101000a81548160ff02191690831515021790555050565b60006040518060a00160405280600054815260200183815260200160001515815260200160001515815260200160001515815250905080600160003373ffffffffffffffffffffffffffffffffffffffff1673ffffffffffffffffffffffffffffffffffffffff16815260200190815260200160002060008054815260200190815260200160002060008201518160000155602082015181600101908051906020019061083b929190610b0d565b5060408201518160020160006101000a81548160ff02191690831515021790555060608201518160020160016101000a81548160ff02191690831515021790555060808201518160020160026101000a81548160ff021916908315150217905550905050600260003373ffffffffffffffffffffffffffffffffffffffff1673ffffffffffffffffffffffffffffffffffffffff168152602001908152602001600020600054908060018154018082558091505060019003906000526020600020016000909190919091505560008081548092919061091990611107565b91905055505050565b80600160003373ffffffffffffffffffffffffffffffffffffffff1673ffffffffffffffffffffffffffffffffffffffff16815260200190815260200160002060008481526020019081526020016000206001019080519060200190610989929190610b0d565b505050565b600080600260003373ffffffffffffffffffffffffffffffffffffffff1673ffffffffffffffffffffffffffffffffffffffff168152602001908152602001600020805480602002602001604051908101604052809291908181526020018280548015610a1a57602002820191906000526020600020905b815481526020019060010190808311610a06575b505050505090506000805b8251811015610acf57600160003373ffffffffffffffffffffffffffffffffffffffff1673ffffffffffffffffffffffffffffffffffffffff1681526020019081526020016000206000848381518110610a8257610a81611048565b5b6020026020010151815260200190815260200160002060020160009054906101000a900460ff16610abc578180610ab890611107565b9250505b8080610ac790611107565b915050610a25565b50809250505090565b6040518060a0016040528060008152602001606081526020016000151581526020016000151581526020016000151581525090565b828054610b19906110a6565b90600052602060002090601f016020900481019282610b3b5760008555610b82565b82601f10610b5457805160ff1916838001178555610b82565b82800160010185558215610b82579182015b82811115610b81578251825591602001919060010190610b66565b5b509050610b8f9190610b93565b5090565b5b80821115610bac576000816000905550600101610b94565b5090565b600081519050919050565b600082825260208201905092915050565b6000819050602082019050919050565b6000819050919050565b610bef81610bdc565b82525050565b600081519050919050565b600082825260208201905092915050565b60005b83811015610c2f578082015181840152602081019050610c14565b83811115610c3e576000848401525b50505050565b6000601f19601f8301169050919050565b6000610c6082610bf5565b610c6a8185610c00565b9350610c7a818560208601610c11565b610c8381610c44565b840191505092915050565b60008115159050919050565b610ca381610c8e565b82525050565b600060a083016000830151610cc16000860182610be6565b5060208301518482036020860152610cd98282610c55565b9150506040830151610cee6040860182610c9a565b506060830151610d016060860182610c9a565b506080830151610d146080860182610c9a565b508091505092915050565b6000610d2b8383610ca9565b905092915050565b6000602082019050919050565b6000610d4b82610bb0565b610d558185610bbb565b935083602082028501610d6785610bcc565b8060005b85811015610da35784840389528151610d848582610d1f565b9450610d8f83610d33565b925060208a01995050600181019050610d6b565b50829750879550505050505092915050565b60006020820190508181036000830152610dcf8184610d40565b905092915050565b6000604051905090565b600080fd5b600080fd5b610df481610bdc565b8114610dff57600080fd5b50565b600081359050610e1181610deb565b92915050565b600060208284031215610e2d57610e2c610de1565b5b6000610e3b84828501610e02565b91505092915050565b600080fd5b600080fd5b7f4e487b7100000000000000000000000000000000000000000000000000000000600052604160045260246000fd5b610e8682610c44565b810181811067ffffffffffffffff82111715610ea557610ea4610e4e565b5b80604052505050565b6000610eb8610dd7565b9050610ec48282610e7d565b919050565b600067ffffffffffffffff821115610ee457610ee3610e4e565b5b610eed82610c44565b9050602081019050919050565b82818337600083830152505050565b6000610f1c610f1784610ec9565b610eae565b905082815260208101848484011115610f3857610f37610e49565b5b610f43848285610efa565b509392505050565b600082601f830112610f6057610f5f610e44565b5b8135610f70848260208601610f09565b91505092915050565b600060208284031215610f8f57610f8e610de1565b5b600082013567ffffffffffffffff811115610fad57610fac610de6565b5b610fb984828501610f4b565b91505092915050565b60008060408385031215610fd957610fd8610de1565b5b6000610fe785828601610e02565b925050602083013567ffffffffffffffff81111561100857611007610de6565b5b61101485828601610f4b565b9150509250929050565b61102781610bdc565b82525050565b6000602082019050611042600083018461101e565b92915050565b7f4e487b7100000000000000000000000000000000000000000000000000000000600052603260045260246000fd5b7f4e487b7100000000000000000000000000000000000000000000000000000000600052602260045260246000fd5b600060028204905060018216806110be57607f821691505b602082108114156110d2576110d1611077565b5b50919050565b7f4e487b7100000000000000000000000000000000000000000000000000000000600052601160045260246000fd5b600061111282610bdc565b91507fffffffffffffffffffffffffffffffffffffffffffffffffffffffffffffffff821415611145576111446110d8565b5b600182019050919050565b600061115b82610bdc565b915061116683610bdc565b925082821015611179576111786110d8565b5b828203905092915050565b600061118f82610bdc565b915061119a83610bdc565b9250827fffffffffffffffffffffffffffffffffffffffffffffffffffffffffffffffff038211156111cf576111ce6110d8565b5b828201905092915050565b7f4e487b7100000000000000000000000000000000000000000000000000000000600052603160045260246000fdfea26469706673582212208c5d9bbf2da243c93654d651b78f28f8aa31a4e47cb337e4cf7361af37e1957a64736f6c63430008090033",
  "linkReferences": {},
  "deployedLinkReferences": {}
}